{
  "_format": "hh-sol-artifact-1",
  "contractName": "SimpleSwap",
  "sourceName": "contracts/SimpleSwap.sol",
  "abi": [
    {
      "anonymous": false,
      "inputs": [
        {
          "indexed": true,
          "internalType": "address",
          "name": "provider",
          "type": "address"
        },
        {
          "indexed": true,
          "internalType": "address",
          "name": "tokenA",
          "type": "address"
        },
        {
          "indexed": true,
          "internalType": "address",
          "name": "tokenB",
          "type": "address"
        },
        {
          "indexed": false,
          "internalType": "uint256",
          "name": "amountA",
          "type": "uint256"
        },
        {
          "indexed": false,
          "internalType": "uint256",
          "name": "amountB",
          "type": "uint256"
        },
        {
          "indexed": false,
          "internalType": "uint256",
          "name": "liquidity",
          "type": "uint256"
        }
      ],
      "name": "LiquidityAdded",
      "type": "event"
    },
    {
      "anonymous": false,
      "inputs": [
        {
          "indexed": true,
          "internalType": "address",
          "name": "provider",
          "type": "address"
        },
        {
          "indexed": true,
          "internalType": "address",
          "name": "tokenA",
          "type": "address"
        },
        {
          "indexed": true,
          "internalType": "address",
          "name": "tokenB",
          "type": "address"
        },
        {
          "indexed": false,
          "internalType": "uint256",
          "name": "amountA",
          "type": "uint256"
        },
        {
          "indexed": false,
          "internalType": "uint256",
          "name": "amountB",
          "type": "uint256"
        },
        {
          "indexed": false,
          "internalType": "uint256",
          "name": "liquidity",
          "type": "uint256"
        }
      ],
      "name": "LiquidityRemoved",
      "type": "event"
    },
    {
      "anonymous": false,
      "inputs": [
        {
          "indexed": true,
          "internalType": "address",
          "name": "user",
          "type": "address"
        },
        {
          "indexed": true,
          "internalType": "address",
          "name": "tokenIn",
          "type": "address"
        },
        {
          "indexed": true,
          "internalType": "address",
          "name": "tokenOut",
          "type": "address"
        },
        {
          "indexed": false,
          "internalType": "uint256",
          "name": "amountIn",
          "type": "uint256"
        },
        {
          "indexed": false,
          "internalType": "uint256",
          "name": "amountOut",
          "type": "uint256"
        }
      ],
      "name": "Swap",
      "type": "event"
    },
    {
      "inputs": [
        {
          "internalType": "address",
          "name": "tokenA",
          "type": "address"
        },
        {
          "internalType": "address",
          "name": "tokenB",
          "type": "address"
        },
        {
          "internalType": "uint256",
          "name": "amountADesired",
          "type": "uint256"
        },
        {
          "internalType": "uint256",
          "name": "amountBDesired",
          "type": "uint256"
        },
        {
          "internalType": "uint256",
          "name": "amountAMin",
          "type": "uint256"
        },
        {
          "internalType": "uint256",
          "name": "amountBMin",
          "type": "uint256"
        },
        {
          "internalType": "address",
          "name": "to",
          "type": "address"
        },
        {
          "internalType": "uint256",
          "name": "deadline",
          "type": "uint256"
        }
      ],
      "name": "addLiquidity",
      "outputs": [
        {
          "internalType": "uint256",
          "name": "amountA",
          "type": "uint256"
        },
        {
          "internalType": "uint256",
          "name": "amountB",
          "type": "uint256"
        },
        {
          "internalType": "uint256",
          "name": "liquidityMinted",
          "type": "uint256"
        }
      ],
      "stateMutability": "nonpayable",
      "type": "function"
    },
    {
      "inputs": [
        {
          "internalType": "uint256",
          "name": "amountIn",
          "type": "uint256"
        },
        {
          "internalType": "uint256",
          "name": "reserveIn",
          "type": "uint256"
        },
        {
          "internalType": "uint256",
          "name": "reserveOut",
          "type": "uint256"
        }
      ],
      "name": "getAmountOut",
      "outputs": [
        {
          "internalType": "uint256",
          "name": "amountOut",
          "type": "uint256"
        }
      ],
      "stateMutability": "pure",
      "type": "function"
    },
    {
      "inputs": [
        {
          "internalType": "address",
          "name": "tokenA",
          "type": "address"
        },
        {
          "internalType": "address",
          "name": "tokenB",
          "type": "address"
        }
      ],
      "name": "getPrice",
      "outputs": [
        {
          "internalType": "uint256",
          "name": "price",
          "type": "uint256"
        }
      ],
      "stateMutability": "view",
      "type": "function"
    },
    {
      "inputs": [
        {
          "internalType": "address",
          "name": "",
          "type": "address"
        },
        {
          "internalType": "address",
          "name": "",
          "type": "address"
        },
        {
          "internalType": "address",
          "name": "",
          "type": "address"
        }
      ],
      "name": "liquidity",
      "outputs": [
        {
          "internalType": "uint256",
          "name": "",
          "type": "uint256"
        }
      ],
      "stateMutability": "view",
      "type": "function"
    },
    {
      "inputs": [
        {
          "internalType": "address",
          "name": "tokenA",
          "type": "address"
        },
        {
          "internalType": "address",
          "name": "tokenB",
          "type": "address"
        },
        {
          "internalType": "uint256",
          "name": "liquidityAmount",
          "type": "uint256"
        },
        {
          "internalType": "uint256",
          "name": "amountAMin",
          "type": "uint256"
        },
        {
          "internalType": "uint256",
          "name": "amountBMin",
          "type": "uint256"
        },
        {
          "internalType": "address",
          "name": "to",
          "type": "address"
        },
        {
          "internalType": "uint256",
          "name": "deadline",
          "type": "uint256"
        }
      ],
      "name": "removeLiquidity",
      "outputs": [
        {
          "internalType": "uint256",
          "name": "amountA",
          "type": "uint256"
        },
        {
          "internalType": "uint256",
          "name": "amountB",
          "type": "uint256"
        }
      ],
      "stateMutability": "nonpayable",
      "type": "function"
    },
    {
      "inputs": [
        {
          "internalType": "address",
          "name": "",
          "type": "address"
        },
        {
          "internalType": "address",
          "name": "",
          "type": "address"
        }
      ],
      "name": "reserves",
      "outputs": [
        {
          "internalType": "uint256",
          "name": "",
          "type": "uint256"
        }
      ],
      "stateMutability": "view",
      "type": "function"
    },
    {
      "inputs": [
        {
          "internalType": "uint256",
          "name": "amountIn",
          "type": "uint256"
        },
        {
          "internalType": "uint256",
          "name": "amountOutMin",
          "type": "uint256"
        },
        {
          "internalType": "address[]",
          "name": "path",
          "type": "address[]"
        },
        {
          "internalType": "address",
          "name": "to",
          "type": "address"
        },
        {
          "internalType": "uint256",
          "name": "deadline",
          "type": "uint256"
        }
      ],
      "name": "swapExactTokensForTokens",
      "outputs": [
        {
          "internalType": "uint256[]",
          "name": "amounts",
          "type": "uint256[]"
        }
      ],
      "stateMutability": "nonpayable",
      "type": "function"
    },
    {
      "inputs": [
        {
          "internalType": "address",
          "name": "",
          "type": "address"
        },
        {
          "internalType": "address",
          "name": "",
          "type": "address"
        }
      ],
      "name": "totalLiquidity",
      "outputs": [
        {
          "internalType": "uint256",
          "name": "",
          "type": "uint256"
        }
      ],
      "stateMutability": "view",
      "type": "function"
    }
  ],
  "bytecode": "0x6080806040523461001657610eeb908161001c8239f35b600080fdfe6040608081526004908136101561001557600080fd5b600091823560e01c908163054d50d414610ca657816331ad2b7e14610c5d57816338ed173914610914578163ac41865a14610835578163baa2abde14610536578163d6711597146104ce578163e8e33700146100c5575063ea4afc541461007b57600080fd5b346100c157806003193601126100c15780602092610097610cce565b61009f610ce9565b6001600160a01b03918216835282865283832091168252845220549051908152f35b5080fd5b9050346104ca576101003660031901126104ca576100e1610cce565b906100ea610ce9565b60443593606435939091906001600160a01b0360c43581811692908390036104c657819061011c60e435421115610cff565b1691828952602091898352858a20941693848a52825284892054898352858a20848b528352858a2054918115806104be575b156103ea5761015f8a99809b610d35565b8b60038211156103dc57508060019080821c8281018091116103c95791905b8383106103a9575050505b975b88156103755787516323b872dd60e01b80825233828401908152306020820152604081018d90528e9392908890829081906060010381878d5af1801561036b57928e9261020395928a9561034e575b508c51908152339181019182523060208301526040820193909352919384928391829160600190565b03918b5af1801561034457936102958b8d9e956102ac956103139e9f958d99610317575b508a885260018a528888208c89528a5288882090885289528c61024e898920918254610dce565b9055898752600289528787208b885289528c61026e898920918254610dce565b90558a8752600289528787208a885289528c61028e898920918254610dce565b9055610dce565b878552848752858520898652875285852055610dce565b85825281845282822085835290935220558251868152602081018890526040810185905233907f43c967b388d3a4ccad3f7ab80167852e322e5a3fde9893f530252281b2ae8b7090606090a451938493846040919493926060820195825260208201520152565b0390f35b610336908b3d8d1161033d575b61032e8183610d7e565b810190610db6565b5038610227565b503d610324565b88513d8e823e3d90fd5b61036490863d881161033d5761032e8183610d7e565b50386101da565b8b513d86823e3d90fd5b875162461bcd60e51b8152908101859052600e60248201526d5a45524f5f4c495155494449545960901b6044820152606490fd5b909192506103c0836103bb8184610d5e565b610dce565b821c919061017e565b634e487b7160e01b8f5260118c5260248ffd5b901561018957506001610189565b6103ff826103fa858d9e9d610d35565b610d5e565b98808a11610466575060a435891061043b57610435826103fa898d9e9c9d5b898152600289528181208b8252895220548c610d35565b9761018b565b865162461bcd60e51b815280890185905260056024820152642627abafa160d91b6044820152606490fd5b98509950610478826103fa838b610d35565b996084358b1061049357610435826103fa898d9e9c9d61041e565b865162461bcd60e51b815280890185905260056024820152644c4f575f4160d81b6044820152606490fd5b50821561014e565b8880fd5b8280fd5b5050346100c15760603660031901126100c1576104e9610cce565b6104f1610ce9565b6001600160a01b0360443581811693908490036105325791818594926020979416845260018752848420911683528552828220908252845220549051908152f35b8580fd5b905082346108325760e036600319011261083257610552610cce565b61055a610ce9565b6001600160a01b039160a4359060443590848316830361053257849061058460c435421115610cff565b1691828652602094600186528887209416938487528552878620338752855287862054956105b483881015610ddb565b83815260028652888120858252865288812054978482528187528982208683528752898220548288528a832086845288528a832054906105f88b6103fa8389610d35565b9a610607816103fa858a610d35565b9a6064358d10610802576084358c106107d2578c8c938f8c908c8f6106768e6106a39b998e6106398361068c9c610e20565b8682526001865287822089835286528782203383528652878220558661065f8484610e20565b91878152600287528181208a825287522055610e20565b938c5260028152828c20918c5252892055610e20565b888652858b528d86208a87528b528d862055610e20565b8683528288528a832086845288528a832055895163a9059cbb60e01b8082526001600160a01b038516838301908152602081018c90529091908990829081906040010381878b5af180156107c85790899392916107ab575b508b519081526001600160a01b039094169084019081526020810189905283908190604001038184895af19081156107a05750610783575b507fd765e08eef31c0983ecca03ecd166297ac485ecd5dd69e291c848f0a020333c18751806107763394898b846040919493926060820195825260208201520152565b0390a48351928352820152f35b61079990853d871161033d5761032e8183610d7e565b5087610733565b8951903d90823e3d90fd5b6107c190843d861161033d5761032e8183610d7e565b508c6106fb565b8c513d86823e3d90fd5b508c5162461bcd60e51b81528085018b905260096024820152681313d5d7d097d3d55560ba1b6044820152606490fd5b508c5162461bcd60e51b81528085018b905260096024820152681313d5d7d057d3d55560ba1b6044820152606490fd5b80fd5b8383346100c157806003193601126100c15761084f610cce565b91610858610ce9565b6001600160a01b039384168083526020838152848420929095168352908452828220548285528383209183529084528282205490918215158061090b575b156108da57670de0b6b3a7640000918281029281840414901517156108c75750906108c091610d5e565b9051908152f35b634e487b7160e01b815260118652602490fd5b835162461bcd60e51b8152808701869052600b60248201526a4e4f5f524553455256455360a81b6044820152606490fd5b50811515610896565b8284346108325760a03660031901126108325782359060443567ffffffffffffffff9182821161083257366023830112156108325781860135958387116100c157602436818960051b860101116104ca576001600160a01b039360643592908584168403610c595761098a608435421115610cff565b60028a03610c28578915610b6c576109a3838201610e2d565b9060019a8b1015610c16576109bb6044889201610e2d565b91168086526020968688528a8720921691828752875289862054948688528a872082885288528a8720546109f081888d610e41565b9686358810610bde578c516323b872dd60e01b815233878201908152306020820152604081018e90528b908290819060600103818d895af18015610bd457610a688f918f958d8f97610a528f98918792610aac9c998b97610bb7575b50610dce565b918b8152808a528181208d82528a522055610e20565b878c528b8552818c20878d528552908b20558d5163a9059cbb60e01b81526001600160a01b0390911687820190815260208101929092529283918291604090910190565b03818a875af18015610bad57610b90575b50895189815285888201527fcd3829a3813dc3cdd188fd3d01dcf3268c16be2fdd2dd21d0665418816e460628b3392a48751956060870190811187821017610b7e578852600286528486019688368937865115610b6c5787528551891015610b5b575050858401528451828152925183830181905283860194879390925b828110610b485785870386f35b8351875295810195928101928401610b3b565b634e487b7160e01b84526032905282fd5b50634e487b7160e01b84526032905282fd5b50634e487b7160e01b84526041905282fd5b610ba690883d8a1161033d5761032e8183610d7e565b508b610abd565b8b513d89823e3d90fd5b610bcd908d803d1061033d5761032e8183610d7e565b5038610a4c565b8e513d8c823e3d90fd5b8c5162461bcd60e51b81528087018b905260138189015272125394d551919250d251539517d3d555141555606a1b6044820152606490fd5b634e487b7160e01b8652603283528386fd5b50600c60649260208a519362461bcd60e51b85528401528201526b0929cac82989288bea082a8960a31b6044820152fd5b8480fd5b5050346100c157806003193601126100c15780602092610c7b610cce565b610c83610ce9565b6001600160a01b0391821683526002865283832091168252845220549051908152f35b82843461083257606036600319011261083257506108c0602092604435906024359035610e41565b600435906001600160a01b0382168203610ce457565b600080fd5b602435906001600160a01b0382168203610ce457565b15610d0657565b60405162461bcd60e51b81526020600482015260076024820152661156141254915160ca1b6044820152606490fd5b81810292918115918404141715610d4857565b634e487b7160e01b600052601160045260246000fd5b8115610d68570490565b634e487b7160e01b600052601260045260246000fd5b90601f8019910116810190811067ffffffffffffffff821117610da057604052565b634e487b7160e01b600052604160045260246000fd5b90816020910312610ce457518015158103610ce45790565b91908201809211610d4857565b15610de257565b60405162461bcd60e51b8152602060048201526016602482015275494e53554646494349454e545f4c495155494449545960501b6044820152606490fd5b91908203918211610d4857565b356001600160a01b0381168103610ce45790565b918215610e8357610e7792610e6b610e719284151580610e7a575b610e6590610ddb565b82610d35565b92610dce565b90610d5e565b90565b50801515610e5c565b60405162461bcd60e51b815260206004820152600a60248201526916915493d7d25394155560b21b6044820152606490fdfea26469706673582212206e707eb07e5739472a097d9e9fbbf175480acfc4aaa3b5b4c286b86af7d3cd3a64736f6c63430008140033",
  "linkReferences": {},
  "deployedLinkReferences": {}
}